{
  "contractName": "TicTacToe",
  "abi": [
    {
      "constant": true,
      "inputs": [],
      "name": "player2",
      "outputs": [
        {
          "name": "",
          "type": "address"
        }
      ],
      "payable": false,
      "stateMutability": "view",
      "type": "function"
    },
    {
      "constant": true,
      "inputs": [],
      "name": "boardSize",
      "outputs": [
        {
          "name": "",
          "type": "uint8"
        }
      ],
      "payable": false,
      "stateMutability": "view",
      "type": "function"
    },
    {
      "constant": true,
      "inputs": [],
      "name": "gameCost",
      "outputs": [
        {
          "name": "",
          "type": "uint256"
        }
      ],
      "payable": false,
      "stateMutability": "view",
      "type": "function"
    },
    {
      "constant": true,
      "inputs": [],
      "name": "player1",
      "outputs": [
        {
          "name": "",
          "type": "address"
        }
      ],
      "payable": false,
      "stateMutability": "view",
      "type": "function"
    },
    {
      "inputs": [],
      "payable": true,
      "stateMutability": "payable",
      "type": "constructor"
    },
    {
      "anonymous": false,
      "inputs": [
        {
          "indexed": false,
          "name": "playerAddress",
          "type": "address"
        }
      ],
      "name": "PlayerJoined",
      "type": "event"
    },
    {
      "anonymous": false,
      "inputs": [
        {
          "indexed": false,
          "name": "playerAddress",
          "type": "address"
        }
      ],
      "name": "NextPlayer",
      "type": "event"
    },
    {
      "anonymous": false,
      "inputs": [
        {
          "indexed": false,
          "name": "playerAddress",
          "type": "address"
        }
      ],
      "name": "GameOverWithWin",
      "type": "event"
    },
    {
      "anonymous": false,
      "inputs": [],
      "name": "GameOverWithDraw",
      "type": "event"
    },
    {
      "anonymous": false,
      "inputs": [],
      "name": "GameTimeout",
      "type": "event"
    },
    {
      "anonymous": false,
      "inputs": [
        {
          "indexed": false,
          "name": "winner",
          "type": "address"
        },
        {
          "indexed": false,
          "name": "amountInWei",
          "type": "uint256"
        }
      ],
      "name": "PayoutSuccess",
      "type": "event"
    },
    {
      "constant": true,
      "inputs": [],
      "name": "getBalance",
      "outputs": [
        {
          "name": "",
          "type": "uint256"
        }
      ],
      "payable": false,
      "stateMutability": "view",
      "type": "function"
    },
    {
      "constant": false,
      "inputs": [],
      "name": "joinGame",
      "outputs": [],
      "payable": true,
      "stateMutability": "payable",
      "type": "function"
    },
    {
      "constant": true,
      "inputs": [],
      "name": "getBoard",
      "outputs": [
        {
          "name": "",
          "type": "address[3][3]"
        }
      ],
      "payable": false,
      "stateMutability": "view",
      "type": "function"
    },
    {
      "constant": false,
      "inputs": [],
      "name": "withdrawWin",
      "outputs": [],
      "payable": false,
      "stateMutability": "nonpayable",
      "type": "function"
    },
    {
      "constant": false,
      "inputs": [
        {
          "name": "x",
          "type": "uint8"
        },
        {
          "name": "y",
          "type": "uint8"
        }
      ],
      "name": "setStone",
      "outputs": [],
      "payable": false,
      "stateMutability": "nonpayable",
      "type": "function"
    },
    {
      "constant": false,
      "inputs": [],
      "name": "emergencyCashout",
      "outputs": [],
      "payable": false,
      "stateMutability": "nonpayable",
      "type": "function"
    }
  ],
  "bytecode": "0x608060405260036000806101000a81548160ff021916908360ff16021790555033600a60006101000a81548173ffffffffffffffffffffffffffffffffffffffff021916908373ffffffffffffffffffffffffffffffffffffffff16021790555067016345785d8a00003414151561007657600080fd5b61012c4201600f81905550611763806100906000396000f3006080604052600436106100a4576000357c0100000000000000000000000000000000000000000000000000000000900463ffffffff16806312065fe0146100a9578063216db3c2146100d45780633264a34b146100eb57806359a5f12d146101615780637d3f9074146101b8578063c51d69f4146101f5578063cab896dc14610226578063d30895e414610251578063d4f77b1c146102a8578063fb815503146102b2575b600080fd5b3480156100b557600080fd5b506100be6102c9565b6040518082815260200191505060405180910390f35b3480156100e057600080fd5b506100e96102e8565b005b3480156100f757600080fd5b50610100610349565b604051808260036000925b818410156101515782846020020151600360200280838360005b83811015610140578082015181840152602081019050610125565b50505050905001926001019261010b565b9250505091505060405180910390f35b34801561016d57600080fd5b50610176610402565b604051808273ffffffffffffffffffffffffffffffffffffffff1673ffffffffffffffffffffffffffffffffffffffff16815260200191505060405180910390f35b3480156101c457600080fd5b506101f3600480360381019080803560ff169060200190929190803560ff169060200190929190505050610428565b005b34801561020157600080fd5b5061020a610cde565b604051808260ff1660ff16815260200191505060405180910390f35b34801561023257600080fd5b5061023b610cf0565b6040518082815260200191505060405180910390f35b34801561025d57600080fd5b50610266610cfc565b604051808273ffffffffffffffffffffffffffffffffffffffff1673ffffffffffffffffffffffffffffffffffffffff16815260200191505060405180910390f35b6102b0610d22565b005b3480156102be57600080fd5b506102c7610fe6565b005b60003073ffffffffffffffffffffffffffffffffffffffff1631905090565b42600f541015156102f857600080fd5b600060029054906101000a900460ff16151561031357600080fd5b7f6c3893468d99c2b493c2e7cbfae79c1c13cb387c8c78305ea6e5eb44ae1d1dbc60405160405180910390a16103476112c1565b565b6103516116e5565b6001600380602002604051908101604052809291906000905b828210156103f9578382600302016003806020026040519081016040528092919082600380156103e5576020028201915b8160009054906101000a900473ffffffffffffffffffffffffffffffffffffffff1673ffffffffffffffffffffffffffffffffffffffff168152602001906001019080831161039b575b50505050508152602001906001019061036a565b50505050905090565b600b60009054906101000a900473ffffffffffffffffffffffffffffffffffffffff1681565b60008073ffffffffffffffffffffffffffffffffffffffff1660018460ff1660038110151561045357fe5b600302018360ff1660038110151561046757fe5b0160009054906101000a900473ffffffffffffffffffffffffffffffffffffffff1673ffffffffffffffffffffffffffffffffffffffff161415156104ab57600080fd5b42600f541115156104bb57600080fd5b600060029054906101000a900460ff1615156104d357fe5b6000809054906101000a900460ff1660ff168360ff161015156104f257fe5b6000809054906101000a900460ff1660ff168260ff1610151561051157fe5b600c60009054906101000a900473ffffffffffffffffffffffffffffffffffffffff1673ffffffffffffffffffffffffffffffffffffffff163373ffffffffffffffffffffffffffffffffffffffff1614151561056d57600080fd5b3360018460ff1660038110151561058057fe5b600302018360ff1660038110151561059457fe5b0160006101000a81548173ffffffffffffffffffffffffffffffffffffffff021916908373ffffffffffffffffffffffffffffffffffffffff1602179055506000600181819054906101000a900460ff168092919060010191906101000a81548160ff021916908360ff1602179055505061012c4201600f81905550600090505b6000809054906101000a900460ff1660ff168160ff16101561073057600c60009054906101000a900473ffffffffffffffffffffffffffffffffffffffff1673ffffffffffffffffffffffffffffffffffffffff1660018260ff1660038110151561067c57fe5b600302018360ff1660038110151561069057fe5b0160009054906101000a900473ffffffffffffffffffffffffffffffffffffffff1673ffffffffffffffffffffffffffffffffffffffff161415156106d457610730565b60016000809054906101000a900460ff160360ff168160ff1614156107235761071e600c60009054906101000a900473ffffffffffffffffffffffffffffffffffffffff1661152c565b610cd9565b8080600101915050610615565b600090505b6000809054906101000a900460ff1660ff168160ff16101561085057600c60009054906101000a900473ffffffffffffffffffffffffffffffffffffffff1673ffffffffffffffffffffffffffffffffffffffff1660018460ff1660038110151561079c57fe5b600302018260ff166003811015156107b057fe5b0160009054906101000a900473ffffffffffffffffffffffffffffffffffffffff1673ffffffffffffffffffffffffffffffffffffffff161415156107f457610850565b60016000809054906101000a900460ff160360ff168160ff1614156108435761083e600c60009054906101000a900473ffffffffffffffffffffffffffffffffffffffff1661152c565b610cd9565b8080600101915050610735565b8160ff168360ff16141561097f57600090505b6000809054906101000a900460ff1660ff168160ff16101561097e57600c60009054906101000a900473ffffffffffffffffffffffffffffffffffffffff1673ffffffffffffffffffffffffffffffffffffffff1660018260ff166003811015156108ca57fe5b600302018260ff166003811015156108de57fe5b0160009054906101000a900473ffffffffffffffffffffffffffffffffffffffff1673ffffffffffffffffffffffffffffffffffffffff161415156109225761097e565b60016000809054906101000a900460ff160360ff168160ff1614156109715761096c600c60009054906101000a900473ffffffffffffffffffffffffffffffffffffffff1661152c565b610cd9565b8080600101915050610863565b5b60016000809054906101000a900460ff160360ff1682840160ff161415610ad457600090505b6000809054906101000a900460ff1660ff168160ff161015610ad357600c60009054906101000a900473ffffffffffffffffffffffffffffffffffffffff1673ffffffffffffffffffffffffffffffffffffffff1660018260ff16600381101515610a0c57fe5b600302018260016000809054906101000a900460ff16030360ff16600381101515610a3357fe5b0160009054906101000a900473ffffffffffffffffffffffffffffffffffffffff1673ffffffffffffffffffffffffffffffffffffffff16141515610a7757610ad3565b60016000809054906101000a900460ff160360ff168160ff161415610ac657610ac1600c60009054906101000a900473ffffffffffffffffffffffffffffffffffffffff1661152c565b610cd9565b80806001019150506109a5565b5b60026000809054906101000a900460ff160a60ff16600060019054906101000a900460ff1660ff161415610b0f57610b0a6112c1565b610cd9565b600a60009054906101000a900473ffffffffffffffffffffffffffffffffffffffff1673ffffffffffffffffffffffffffffffffffffffff16600c60009054906101000a900473ffffffffffffffffffffffffffffffffffffffff1673ffffffffffffffffffffffffffffffffffffffff161415610bef57600b60009054906101000a900473ffffffffffffffffffffffffffffffffffffffff16600c60006101000a81548173ffffffffffffffffffffffffffffffffffffffff021916908373ffffffffffffffffffffffffffffffffffffffff160217905550610c53565b600a60009054906101000a900473ffffffffffffffffffffffffffffffffffffffff16600c60006101000a81548173ffffffffffffffffffffffffffffffffffffffff021916908373ffffffffffffffffffffffffffffffffffffffff1602179055505b7f637351f91da430278368fb3e486c8c3da47b2e6ce4d28b2c404cb044702ca7e1600c60009054906101000a900473ffffffffffffffffffffffffffffffffffffffff16604051808273ffffffffffffffffffffffffffffffffffffffff1673ffffffffffffffffffffffffffffffffffffffff16815260200191505060405180910390a15b505050565b6000809054906101000a900460ff1681565b67016345785d8a000081565b600a60009054906101000a900473ffffffffffffffffffffffffffffffffffffffff1681565b600073ffffffffffffffffffffffffffffffffffffffff16600b60009054906101000a900473ffffffffffffffffffffffffffffffffffffffff1673ffffffffffffffffffffffffffffffffffffffff16141515610d7c57fe5b67016345785d8a000034141515610d9257600080fd5b33600b60006101000a81548173ffffffffffffffffffffffffffffffffffffffff021916908373ffffffffffffffffffffffffffffffffffffffff1602179055506001600060026101000a81548160ff0219169083151502179055507f31e760aa525306aba638a784082a013b6a1cc0a9a1789f3f22281c0453b10b1f600b60009054906101000a900473ffffffffffffffffffffffffffffffffffffffff16604051808273ffffffffffffffffffffffffffffffffffffffff1673ffffffffffffffffffffffffffffffffffffffff16815260200191505060405180910390a16000600243811515610e8157fe5b061415610ef057600b60009054906101000a900473ffffffffffffffffffffffffffffffffffffffff16600c60006101000a81548173ffffffffffffffffffffffffffffffffffffffff021916908373ffffffffffffffffffffffffffffffffffffffff160217905550610f54565b600a60009054906101000a900473ffffffffffffffffffffffffffffffffffffffff16600c60006101000a81548173ffffffffffffffffffffffffffffffffffffffff021916908373ffffffffffffffffffffffffffffffffffffffff1602179055505b7f637351f91da430278368fb3e486c8c3da47b2e6ce4d28b2c404cb044702ca7e1600c60009054906101000a900473ffffffffffffffffffffffffffffffffffffffff16604051808273ffffffffffffffffffffffffffffffffffffffff1673ffffffffffffffffffffffffffffffffffffffff16815260200191505060405180910390a161012c4201600f81905550565b600a60009054906101000a900473ffffffffffffffffffffffffffffffffffffffff1673ffffffffffffffffffffffffffffffffffffffff163373ffffffffffffffffffffffffffffffffffffffff161415611154576000600d5411151561104d57600080fd5b600a60009054906101000a900473ffffffffffffffffffffffffffffffffffffffff1673ffffffffffffffffffffffffffffffffffffffff166108fc600d549081150290604051600060405180830381858888f193505050501580156110b7573d6000803e3d6000fd5b507f2a44162a2d5223e37cacacc3f626dcfee1396e0be3616534c5c7b718f786b673600a60009054906101000a900473ffffffffffffffffffffffffffffffffffffffff16600d54604051808373ffffffffffffffffffffffffffffffffffffffff1673ffffffffffffffffffffffffffffffffffffffff1681526020018281526020019250505060405180910390a16000600d819055506112bf565b600b60009054906101000a900473ffffffffffffffffffffffffffffffffffffffff1673ffffffffffffffffffffffffffffffffffffffff163373ffffffffffffffffffffffffffffffffffffffff1614156112be576000600e541115156111bb57600080fd5b600a60009054906101000a900473ffffffffffffffffffffffffffffffffffffffff1673ffffffffffffffffffffffffffffffffffffffff166108fc600e549081150290604051600060405180830381858888f19350505050158015611225573d6000803e3d6000fd5b507f2a44162a2d5223e37cacacc3f626dcfee1396e0be3616534c5c7b718f786b673600a60009054906101000a900473ffffffffffffffffffffffffffffffffffffffff16600e54604051808373ffffffffffffffffffffffffffffffffffffffff1673ffffffffffffffffffffffffffffffffffffffff1681526020018281526020019250505060405180910390a16000600e819055505b5b565b600080600060026101000a81548160ff0219169083151502179055507f2207d46a2ba0f2acda06e9a222b40fd004e385738b3f868e63b2c0bfe4bc094c60405160405180910390a160023073ffffffffffffffffffffffffffffffffffffffff163181151561132c57fe5b04905060011515600a60009054906101000a900473ffffffffffffffffffffffffffffffffffffffff1673ffffffffffffffffffffffffffffffffffffffff166108fc839081150290604051600060405180830381858888f1935050505015151415611424577f2a44162a2d5223e37cacacc3f626dcfee1396e0be3616534c5c7b718f786b673600a60009054906101000a900473ffffffffffffffffffffffffffffffffffffffff1682604051808373ffffffffffffffffffffffffffffffffffffffff1673ffffffffffffffffffffffffffffffffffffffff1681526020018281526020019250505060405180910390a161142c565b80600d819055505b60011515600b60009054906101000a900473ffffffffffffffffffffffffffffffffffffffff1673ffffffffffffffffffffffffffffffffffffffff166108fc839081150290604051600060405180830381858888f1935050505015151415611521577f2a44162a2d5223e37cacacc3f626dcfee1396e0be3616534c5c7b718f786b673600b60009054906101000a900473ffffffffffffffffffffffffffffffffffffffff1682604051808373ffffffffffffffffffffffffffffffffffffffff1673ffffffffffffffffffffffffffffffffffffffff1681526020018281526020019250505060405180910390a1611529565b80600e819055505b50565b600080600060026101000a81548160ff0219169083151502179055507f8245a3876d42d9b0bdb7f24184c03fc24e3d8a079f492b1ec9ceae70b366edf982604051808273ffffffffffffffffffffffffffffffffffffffff1673ffffffffffffffffffffffffffffffffffffffff16815260200191505060405180910390a13073ffffffffffffffffffffffffffffffffffffffff16319050600115158273ffffffffffffffffffffffffffffffffffffffff166108fc839081150290604051600060405180830381858888f1935050505015151415611676577f2a44162a2d5223e37cacacc3f626dcfee1396e0be3616534c5c7b718f786b6738282604051808373ffffffffffffffffffffffffffffffffffffffff1673ffffffffffffffffffffffffffffffffffffffff1681526020018281526020019250505060405180910390a16116e1565b600a60009054906101000a900473ffffffffffffffffffffffffffffffffffffffff1673ffffffffffffffffffffffffffffffffffffffff168273ffffffffffffffffffffffffffffffffffffffff1614156116d85780600d819055506116e0565b80600e819055505b5b5050565b610120604051908101604052806003905b6116fe611714565b8152602001906001900390816116f65790505090565b6060604051908101604052806003906020820280388339808201915050905050905600a165627a7a723058204443e8b0ef35db099117522d4d79d0f6e7143db147fc4bbfd614d2e0dd20d4cc0029",
  "source": "pragma solidity ^0.4.19;\n\ncontract TicTacToe {\n    // The cost of playing the game\n    uint constant public gameCost = 0.1 ether;\n\n    // Board size - 3X3\n    uint8 public boardSize = 3;\n\n    // Number of moves made in the game\n    uint8 movesCounter;\n\n    // Flag whether game is active versus ot enought players or game is over\n    bool gameActive;\n\n    // Cells will hold address of the holder of the cells\n    address[3][3] board;\n\n    address public player1;\n    address public player2;\n\n    // Address of the players whose turn it is\n    address activePlayer;\n\n    // Amounts owed to each player\n    // Used in case send fails and player need to withdraw funds\n    uint balanceToWithdrawPlayer1;\n    uint balanceToWithdrawPlayer2;\n\n    // Deal with abandoned game - set max time per move\n    uint constant timeToReact = 5 minutes;\n    uint gameValidUntil;\n\n    // Event when second player joins\n    event PlayerJoined(address playerAddress);\n\n    // Event when player has completed a move - emits address of next player\n    event NextPlayer(address playerAddress);\n\n    // Event when a winner is found\n    event GameOverWithWin(address playerAddress);\n\n    // Event when the game ends in a draw\n    event GameOverWithDraw();\n\n    // Event when a timeout is detected (e.g. emergency payout activiated)\n    event GameTimeout();\n\n    // Event when the game pays out\n    event PayoutSuccess(address winner, uint amountInWei);\n\n    constructor() public payable {\n        player1 = msg.sender;\n        require(msg.value == gameCost);\n        gameValidUntil = now + timeToReact;\n    }\n\n    function getBalance() public view returns (uint) {\n        return address(this).balance;\n    }\n\n    function joinGame() public payable {\n        // Assure that no second player has joined - e.g. only two players\n        assert(player2 == address(0));\n        require(msg.value == gameCost);\n\n        player2 = msg.sender;\n        gameActive = true;\n        emit PlayerJoined(player2);\n\n        // \"Randomize\" who goes first\n        if (block.number % 2 == 0) {\n            activePlayer = player2;\n        } else {\n            activePlayer = player1;\n        }\n\n        emit NextPlayer(activePlayer);\n        gameValidUntil = now + timeToReact;\n    }\n\n    function getBoard() public view returns(address[3][3]) {\n        return board;\n    }\n\n    function setWinner(address player) private {\n        gameActive = false;\n        // emit event\n        emit GameOverWithWin(player);\n        // pay out to winner (transfer funds)\n        uint amount = address(this).balance;\n        if (player.send(amount) == true) {\n            emit PayoutSuccess(player, amount);\n        } else {\n            if (player == player1) {\n                balanceToWithdrawPlayer1 = amount;\n            } else {\n                balanceToWithdrawPlayer2 = amount;\n            }\n        }\n    }\n\n    function withdrawWin() public {\n        if (msg.sender == player1) {\n            require(balanceToWithdrawPlayer1 > 0);\n            player1.transfer(balanceToWithdrawPlayer1);\n            emit PayoutSuccess(player1, balanceToWithdrawPlayer1);\n            balanceToWithdrawPlayer1 = 0;\n        } else if (msg.sender == player2) {\n            require(balanceToWithdrawPlayer2 > 0);\n            player1.transfer(balanceToWithdrawPlayer2);\n            emit PayoutSuccess(player1, balanceToWithdrawPlayer2);\n            balanceToWithdrawPlayer2 = 0;\n        }\n    }\n\n    function setDraw() private {\n        gameActive = false;\n        emit GameOverWithDraw();\n        uint halfAmount = address(this).balance / 2;\n\n        if (player1.send(halfAmount) == true) {\n            emit PayoutSuccess(player1, halfAmount);\n        } else {\n            balanceToWithdrawPlayer1 = halfAmount;\n        }\n\n        if (player2.send(halfAmount) == true) {\n            emit PayoutSuccess(player2, halfAmount);\n        } else {\n            balanceToWithdrawPlayer2 = halfAmount;\n        }\n    }\n\n    function setStone(uint8 x, uint8 y) public {\n        // Can't choose a cell that is already taken\n        require(board[x][y] == address(0));\n\n        // Assure the game hasn't expired\n        require(gameValidUntil > now);\n\n        // Game must be active in order to make a move\n        assert(gameActive);\n\n        // Can't choose cells outside the cell range\n        assert(x < boardSize);\n        assert(y < boardSize);\n        // Player taking turn is the active Player\n        require(msg.sender == activePlayer);\n\n        board[x][y] = msg.sender;\n        movesCounter++;\n        gameValidUntil = now + timeToReact;\n\n        // Check for winner - note this is a loop and must be careful of gas\n        for (uint8 i = 0; i < boardSize;i++) {\n            if (board[i][y] != activePlayer) {\n                break;\n            }\n            if (i == boardSize - 1) {\n                // Win\n                setWinner(activePlayer);\n                return; // prevent further execution\n            }\n        }\n\n        for (i = 0; i < boardSize;i++) {\n            if (board[x][i] != activePlayer) {\n                break;\n            }\n            if (i == boardSize - 1) {\n                // Win\n                setWinner(activePlayer);\n                return; // prevent further execution            }\n        }\n        }\n\n        // Diagonals\n        if (x == y) {\n            for (i = 0; i < boardSize;i++) {\n                if (board[i][i] != activePlayer) {\n                    break;\n                }\n                if (i == boardSize - 1) {\n                    // Win\n                    setWinner(activePlayer);\n                    return; // prevent further execution\n                }\n            }\n        }\n\n        if ((x + y) == (boardSize - 1)) {\n            for (i = 0; i < boardSize;i++) {\n                if (board[i][(boardSize - 1) - i] != activePlayer) {\n                    break;\n                }\n                if (i == boardSize - 1) {\n                    // Win\n                    setWinner(activePlayer);\n                    return; // prevent further execution\n                }\n            }\n\n        }\n\n        // Draw\n        if (movesCounter == boardSize ** 2) {\n            // Draw\n            setDraw();\n            return; // prevent further execution\n        }\n\n        // Switch to other Player's turn\n        if (activePlayer == player1) {\n            activePlayer = player2;\n        } else {\n            activePlayer = player1;\n        }\n        emit NextPlayer(activePlayer);\n    }\n\n    // Handle abandoned game - emergency cash out\n    // Refund player's deposits\n    function emergencyCashout() public {\n        require(gameValidUntil < now);\n        require(gameActive);\n        emit GameTimeout();\n        setDraw();\n    }\n}\n",
  "sourcePath": "/home/readda/Desktop/EthereumCourse/BuildTicTacToe/truffle/contracts/TicTacToe.sol",
  "compiler": {
    "name": "solc",
    "version": "0.4.24+commit.e67f0147.Emscripten.clang"
  },
  "schemaVersion": "2.0.0",
  "updatedAt": "2018-09-03T18:38:46.401Z"
}